{
  "transactions": [
    {
      "hash": "0xba6e49b3349f3e67be88f6dbaa3bca6564a516ff039fdb24fd77417454cc547f",
      "transactionType": "CREATE",
      "contractName": "ArbExecutor",
      "contractAddress": "0x96888c4b6e569c74fdbdcc40cacf1127421f993c",
      "function": null,
      "arguments": null,
      "transaction": {
        "from": "0x8660ad527b3df16b236307e7fbe6affb1ee4491a",
        "gas": "0x1c1248",
        "value": "0x0",
        "input": "0x6080806040523461008d5760015f5533156100785760018054336001600160a01b03198216811790925560405191906001600160a01b03167f8be0079c531659141344cd1fd0a4f28419497f9722a3daafe3b4186f6b6457e05f80a3662386f26fc100006005556101f46006556116f190816100928239f35b631e4fbdf760e01b81525f6004820152602490fd5b5f80fdfe60406080815260049081361015610014575f80fd5b5f91823560e01c806305161b8114610d0e578063338b5dea14610bf65780633aecd0e314610b6157806343f68a4914610afc578063494f591d14610ad3578063523fba7f14610a9e5780636bc53784146106285780636ff1c9bc14610549578063715018a6146104e95780637341ab8c146104ca5780638c04166f146104ab5780638da5cb5b146104825780638e77bff41461043f578063933f4eef146103ff57806398e9cb12146103bc5780639bc7c5861461037e5780639e6f1f6614610340578063c02864651461031a578063d35c9a071461018c5763f2fde38b146100fa575f80fd5b3461018857602036600319011261018857610113610d4e565b9061011c610dc3565b6001600160a01b03918216928315610172575050600154826bffffffffffffffffffffffff60a01b821617600155167f8be0079c531659141344cd1fd0a4f28419497f9722a3daafe3b4186f6b6457e08380a380f35b51631e4fbdf760e01b8152908101849052602490fd5b8280fd5b50346101885781600319360112610188576101a5610d4e565b906024356101b1610dc3565b60018060a01b0380931693848652602092600284526101d560ff8389205416611551565b6101e0831515610f03565b81516370a0823160e01b8082523083830152959085816024818b5afa908115610310579085918a916102d9575b509161021e82610228941015610fa1565b6001541688611594565b815194855230818601528385602481895afa9081156102cf57879161027c575b7f016e128b6bdadd9e9068abd0b18db2fc8b27ed3dbced50e4aa6cc0a6934251ab955086885284528187205551908152a280f35b90508385813d83116102c8575b6102938183610f7f565b810103126102c4577f016e128b6bdadd9e9068abd0b18db2fc8b27ed3dbced50e4aa6cc0a6934251ab945190610248565b8680fd5b503d610289565b82513d89823e3d90fd5b809250878092503d8311610309575b6102f28183610f7f565b810103126103055751849061021e61020d565b8880fd5b503d6102e8565b84513d8b823e3d90fd5b83823461033c57602036600319011261033c57610335610dc3565b3560055580f35b5080fd5b50503461033c57602036600319011261033c5760209160ff9082906001600160a01b0361036b610d4e565b1681526003855220541690519015158152f35b50503461033c57602036600319011261033c5760209160ff9082906001600160a01b036103a9610d4e565b1681526002855220541690519015158152f35b50503461033c57602036600319011261033c576103d7610d4e565b6103df610dc3565b6001600160a01b0316825260026020528120805460ff1916600117905580f35b50503461033c57602036600319011261033c5761041a610d4e565b610422610dc3565b6001600160a01b0316825260026020528120805460ff1916905580f35b50503461033c57602036600319011261033c5761045a610d4e565b610462610dc3565b6001600160a01b0316825260036020528120805460ff1916600117905580f35b50503461033c578160031936011261033c5760015490516001600160a01b039091168152602090f35b50503461033c578160031936011261033c576020906006549051908152f35b50503461033c578160031936011261033c576020906005549051908152f35b8334610546578060031936011261054657610502610dc3565b600180546001600160a01b0319811690915581906001600160a01b03167f8be0079c531659141344cd1fd0a4f28419497f9722a3daafe3b4186f6b6457e08280a380f35b80fd5b50346101885760208060031936011261062457610564610d4e565b9161056d610dc3565b83516370a0823160e01b815230828201526001600160a01b039384169490918383602481895afa9283156102cf5787936105f5575b50826105ac578680f35b6105dc837f5fafa99d0643513820be26656b45130b01e1c03062e1266bf36f88cbd3bd9695966001541688611594565b8587528352858181205551908152a25f80808080808680f35b9092508381813d831161061d575b61060d8183610f7f565b810103126102c45751915f6105a2565b503d610603565b8380fd5b50346101885761063736610d68565b969495906002899594955414610a8f5790889160028355610656610dc3565b60018060a01b03988989169889968786526020966002885261067d60ff8c89205416610def565b8c82169c8d88526002895261069760ff8d8a205416610e34565b8082168852600389526106af60ff8d8a205416610e79565b85168752600388526106c660ff8c89205416610ebe565b6106d18a1515610f03565b8a51809789826370a0823160e01b9c8d8252308b83015260249b8c915afa908115610974578c91610a5e575b61070992501015610fa1565b6107158a8385846114a9565b8015610a1b57610741908f8615610a145784915b8715610a0d5786915b508715610a0557915b886114a9565b80156109c2578a808211156109ba5761075991610fe4565b6005541161097f57908d949392918c898b8a8f51809481938252308d8301525afa96871561097457908c92919761093d575b50818385610798936110ee565b931561092b57506107a8936110ee565b505b8651908582523083830152848285818c5afa918215610921578b926108ee575b50808211156108e5576107dc91610fe4565b935b84156108b1578390875193849182523084830152818a5afa9182156108a757899261084b575b50868952825284882055835192835282015242918101919091527f0479602bef4bb9277c21beadda23c5e4db7f0b2d4877d00070d6e0739e8c7c0e90606090a36001815580f35b9493915094918085813d83116108a0575b6108668183610f7f565b81010312610305577f0479602bef4bb9277c21beadda23c5e4db7f0b2d4877d00070d6e0739e8c7c0e956060955192949550909295610804565b503d61085c565b86513d8b823e3d90fd5b5060106064928488519362461bcd60e51b85528401528201526f105c989a5d1c9859d94819985a5b195960821b6044820152fd5b505088936107de565b9091508481813d831161091a575b6109068183610f7f565b810103126109165751905f6107ca565b8a80fd5b503d6108fc565b88513d8d823e3d90fd5b925090610937936110ee565b506107aa565b8a809298508193503d831161096d575b6109578183610f7f565b810103126109695751948a908161078b565b8e80fd5b503d61094d565b8d51903d90823e3d90fd5b8a5162461bcd60e51b815280870189905260168189015275141c9bd99a5d0818995b1bddc81d1a1c995cda1bdb1960521b6044820152606490fd5b50508d610759565b508a5162461bcd60e51b81528087018990526017818901527f4e6f206c6971756964697479206f6e20726f75746572320000000000000000006044820152606490fd5b508c9161073b565b8591610732565b8591610729565b508a5162461bcd60e51b81528087018990526017818901527f4e6f206c6971756964697479206f6e20726f75746572310000000000000000006044820152606490fd5b50508881813d8311610a88575b610a758183610f7f565b81010312610969578a61070991516106fd565b503d610a6b565b508451633ee5aeb560e01b8152fd5b50346101885760203660031901126101885760209282916001600160a01b03610ac5610d4e565b168252845220549051908152f35b50503461033c57602090610af5610ae936610d68565b949390939291926115d7565b9051908152f35b503461018857602036600319011261018857803591610b19610dc3565b6103e88311610b2a57505060065580f35b906020606492519162461bcd60e51b835282015260116024820152700a6d8d2e0e0c2ceca40e8dede40d0d2ced607b1b6044820152fd5b5091903461033c576020928360031936011261018857836001600160a01b03610b88610d4e565b169160248451809481936370a0823160e01b835230908301525afa928315610beb578093610bb9575b505051908152f35b909192508382813d8311610be4575b610bd28183610f7f565b81010312610546575051905f80610bb1565b503d610bc8565b8251903d90823e3d90fd5b509034610188578060031936011261018857610c10610d4e565b6001600160a01b0316808452600260209081528285205491939160243590610c3a9060ff16611551565b610c45811515610f03565b8351906323b872dd60e01b8383015233602483015230604483015260648201526064815260a0810181811067ffffffffffffffff821117610cfb578452610c8c9085611396565b82516370a0823160e01b81523083820152938185602481845afa948515610cf1578695610cbe575b5085525282205580f35b9094508181813d8311610cea575b610cd68183610f7f565b81010312610ce65751935f610cb4565b8580fd5b503d610ccc565b84513d88823e3d90fd5b634e487b7160e01b875260418452602487fd5b50503461033c57602036600319011261033c57610d29610d4e565b610d31610dc3565b6001600160a01b0316825260036020528120805460ff1916905580f35b600435906001600160a01b0382168203610d6457565b5f80fd5b60c0906003190112610d64576001600160a01b036004358181168103610d6457916024358281168103610d645791604435916064358281168103610d6457916084359081168103610d64579060a4358015158103610d645790565b6001546001600160a01b03163303610dd757565b60405163118cdaa760e01b8152336004820152602490fd5b15610df657565b60405162461bcd60e51b8152602060048201526016602482015275151bdad95b8810481b9bdd08185d5d1a1bdc9a5e995960521b6044820152606490fd5b15610e3b57565b60405162461bcd60e51b8152602060048201526016602482015275151bdad95b8810881b9bdd08185d5d1a1bdc9a5e995960521b6044820152606490fd5b15610e8057565b60405162461bcd60e51b8152602060048201526016602482015275149bdd5d195c8c481b9bdd08185d5d1a1bdc9a5e995960521b6044820152606490fd5b15610ec557565b60405162461bcd60e51b8152602060048201526016602482015275149bdd5d195c8c881b9bdd08185d5d1a1bdc9a5e995960521b6044820152606490fd5b15610f0a57565b60405162461bcd60e51b815260206004820152601d60248201527f416d6f756e74206d7573742062652067726561746572207468616e20300000006044820152606490fd5b6060810190811067ffffffffffffffff821117610f6b57604052565b634e487b7160e01b5f52604160045260245ffd5b90601f8019910116810190811067ffffffffffffffff821117610f6b57604052565b15610fa857565b60405162461bcd60e51b8152602060048201526014602482015273496e73756666696369656e742062616c616e636560601b6044820152606490fd5b91908203918211610ff157565b634e487b7160e01b5f52601160045260245ffd5b8051156110125760200190565b634e487b7160e01b5f52603260045260245ffd5b8051600110156110125760400190565b906020908183820312610d6457825167ffffffffffffffff93848211610d64570181601f82011215610d64578051938411610f6b578360051b906040519461108085840187610f7f565b85528380860192820101928311610d64578301905b8282106110a3575050505090565b81518152908301908301611095565b9081518082526020808093019301915f5b8281106110d1575050505090565b83516001600160a01b0316855293810193928101926001016110c3565b6040805163095ea7b360e01b602082018181526001600160a01b03948516602480850182905260448086018b90528552968616998a999098959796909591949193909261113c606484610f7f565b5f809b8192828651925af161114f611407565b8161134f575b5080611345575b156112e6575b50508551986111708a610f4f565b60028a52863660208c01376111848a611005565b5261118e89611026565b91169052835163d06ca61f60e01b815282600482015284848201528681806111b9604482018c6110b2565b0381855afa9081156112dc57906111d79188916112c2575b50611026565b51600654926127109384039184831161129c578281029281840414901517156112af5761012c42019889421161129c579088996112418a9798999a938a51998a98899788966338ed173960e01b88526004880152049085015260a0604485015260a48401906110b2565b90306064840152608483015203925af191821561129357508361126c939492611270575b5050611026565b5190565b61128c92503d8091833e6112848183610f7f565b810190611036565b5f80611265565b513d85823e3d90fd5b634e487b7160e01b895260116004528589fd5b634e487b7160e01b885260116004528488fd5b6112d691503d808a833e6112848183610f7f565b5f6111d1565b85513d89823e3d90fd5b87519060208201528487820152896044820152604481526080810181811067ffffffffffffffff8211176113325761132b9291611325918a528c611396565b8a611396565b5f80611162565b634e487b7160e01b8b526041600452878bfd5b508a3b151561115c565b8051801592508215611364575b50505f611155565b611377925060208091830101910161137e565b5f8061135c565b90816020910312610d6457518015158103610d645790565b5f806113be9260018060a01b03169360208151910182865af16113b7611407565b9083611446565b80519081151591826113ec575b50506113d45750565b60249060405190635274afe760e01b82526004820152fd5b6113ff925060208091830101910161137e565b155f806113cb565b3d15611441573d9067ffffffffffffffff8211610f6b5760405191611436601f8201601f191660200184610f7f565b82523d5f602084013e565b606090565b9061146d575080511561145b57805190602001fd5b604051630a12f52160e11b8152600490fd5b815115806114a0575b61147e575090565b604051639996b31560e01b81526001600160a01b039091166004820152602490fd5b50803b15611476565b611516935f9392604051936114bd85610f4f565b6002855260403660208701376114d285611005565b6001600160a01b039283169052816114e986611026565b9116905260405180968195829463d06ca61f60e01b845260048401526040602484015260448301906110b2565b0392165afa5f9181611536575b5061152d57505f90565b61126c90611026565b61154a91923d8091833e6112848183610f7f565b905f611523565b1561155857565b60405162461bcd60e51b8152602060048201526014602482015273151bdad95b881b9bdd08185d5d1a1bdc9a5e995960621b6044820152606490fd5b60405163a9059cbb60e01b60208201526001600160a01b039290921660248301526044808301939093529181526115d5916115d0606483610f7f565b611396565b565b92906116558382866040999598969860018060a01b0361163760ff5f9d8e8487168152600260205261160d838383205416610def565b84881681526002602052611625838383205416610e34565b84861681526003602052205416610e79565b88168b52600360205261165060ff60408d205416610ebe565b6114a9565b80156116b25761167b9483156116ab57825b84156116a35750925b1561169b57926114a9565b80156116965781811115611696576116939250610fe4565b90565b505090565b5084926114a9565b905092611670565b8092611667565b5050505050509056fea2646970667358221220a0df47dad972c14de1e80b17ff17f55d6e730f3cff5a40a6517b3931a820c41864736f6c63430008140033",
        "nonce": "0x1",
        "chainId": "0xaa36a7"
      },
      "additionalContracts": [],
      "isFixedGasLimit": false
    },
    {
      "hash": "0xde27b6ecc2a99e408675627b56493a452bb2227e6be5839865dbf927f75397ba",
      "transactionType": "CALL",
      "contractName": "ArbExecutor",
      "contractAddress": "0x96888c4b6e569c74fdbdcc40cacf1127421f993c",
      "function": "authorizeToken(address)",
      "arguments": [
        "0xfFf9976782d46CC05630D1f6eBAb18b2324d6B14"
      ],
      "transaction": {
        "from": "0x8660ad527b3df16b236307e7fbe6affb1ee4491a",
        "to": "0x96888c4b6e569c74fdbdcc40cacf1127421f993c",
        "gas": "0xf9e8",
        "value": "0x0",
        "input": "0x98e9cb12000000000000000000000000fff9976782d46cc05630d1f6ebab18b2324d6b14",
        "nonce": "0x2",
        "chainId": "0xaa36a7"
      },
      "additionalContracts": [],
      "isFixedGasLimit": false
    },
    {
      "hash": "0xe2cdc64e103a8e78a9496607195d75917672a0306cc8a512475ab9c4b16b71bb",
      "transactionType": "CALL",
      "contractName": "ArbExecutor",
      "contractAddress": "0x96888c4b6e569c74fdbdcc40cacf1127421f993c",
      "function": "authorizeToken(address)",
      "arguments": [
        "0x94a9D9AC8a22534E3FaCa9F4e7F2E2cf85d5E4C8"
      ],
      "transaction": {
        "from": "0x8660ad527b3df16b236307e7fbe6affb1ee4491a",
        "to": "0x96888c4b6e569c74fdbdcc40cacf1127421f993c",
        "gas": "0xf9e8",
        "value": "0x0",
        "input": "0x98e9cb1200000000000000000000000094a9d9ac8a22534e3faca9f4e7f2e2cf85d5e4c8",
        "nonce": "0x3",
        "chainId": "0xaa36a7"
      },
      "additionalContracts": [],
      "isFixedGasLimit": false
    },
    {
      "hash": "0x8a5fbd4e070b0c84d62d6e82484da59ddaf673f37f74c221cd119ba81b17f577",
      "transactionType": "CALL",
      "contractName": "ArbExecutor",
      "contractAddress": "0x96888c4b6e569c74fdbdcc40cacf1127421f993c",
      "function": "authorizeToken(address)",
      "arguments": [
        "0x7169D38820dfd117C3FA1f22a697dBA58d90BA06"
      ],
      "transaction": {
        "from": "0x8660ad527b3df16b236307e7fbe6affb1ee4491a",
        "to": "0x96888c4b6e569c74fdbdcc40cacf1127421f993c",
        "gas": "0xf9e8",
        "value": "0x0",
        "input": "0x98e9cb120000000000000000000000007169d38820dfd117c3fa1f22a697dba58d90ba06",
        "nonce": "0x4",
        "chainId": "0xaa36a7"
      },
      "additionalContracts": [],
      "isFixedGasLimit": false
    },
    {
      "hash": "0xdb8b204a0e6bec342c8674ef3b6f8aaded45bb7a5f59274ff6b28f7885142254",
      "transactionType": "CALL",
      "contractName": "ArbExecutor",
      "contractAddress": "0x96888c4b6e569c74fdbdcc40cacf1127421f993c",
      "function": "authorizeRouter(address)",
      "arguments": [
        "0xC532A74256D3db4d4444457e8D5c9C7B6e1c3c6A"
      ],
      "transaction": {
        "from": "0x8660ad527b3df16b236307e7fbe6affb1ee4491a",
        "to": "0x96888c4b6e569c74fdbdcc40cacf1127421f993c",
        "gas": "0x1085c",
        "value": "0x0",
        "input": "0x8e77bff4000000000000000000000000c532a74256d3db4d4444457e8d5c9c7b6e1c3c6a",
        "nonce": "0x5",
        "chainId": "0xaa36a7"
      },
      "additionalContracts": [],
      "isFixedGasLimit": false
    },
    {
      "hash": "0xb47fb5561533397c471caa68f3248ed6351cff9fb087b79428457ce08737447e",
      "transactionType": "CALL",
      "contractName": "ArbExecutor",
      "contractAddress": "0x96888c4b6e569c74fdbdcc40cacf1127421f993c",
      "function": "authorizeRouter(address)",
      "arguments": [
        "0x1b02dA8Cb0d097eB8D57A175b88c7D8b47997506"
      ],
      "transaction": {
        "from": "0x8660ad527b3df16b236307e7fbe6affb1ee4491a",
        "to": "0x96888c4b6e569c74fdbdcc40cacf1127421f993c",
        "gas": "0x1085c",
        "value": "0x0",
        "input": "0x8e77bff40000000000000000000000001b02da8cb0d097eb8d57a175b88c7d8b47997506",
        "nonce": "0x6",
        "chainId": "0xaa36a7"
      },
      "additionalContracts": [],
      "isFixedGasLimit": false
    },
    {
      "hash": "0xc0fef1f4ed8d4ebe8505b13b2f8ead3027d92f9efe7973ec5dd0ffba1da762c9",
      "transactionType": "CALL",
      "contractName": "ArbExecutor",
      "contractAddress": "0x96888c4b6e569c74fdbdcc40cacf1127421f993c",
      "function": "setMinProfitThreshold(uint256)",
      "arguments": [
        "1000000000000000"
      ],
      "transaction": {
        "from": "0x8660ad527b3df16b236307e7fbe6affb1ee4491a",
        "to": "0x96888c4b6e569c74fdbdcc40cacf1127421f993c",
        "gas": "0xa567",
        "value": "0x0",
        "input": "0xc028646500000000000000000000000000000000000000000000000000038d7ea4c68000",
        "nonce": "0x7",
        "chainId": "0xaa36a7"
      },
      "additionalContracts": [],
      "isFixedGasLimit": false
    },
    {
      "hash": "0x9792f4d4da1deaa754d8f21fd8cff3cf06ff22f20eb8ad4b48bf51dcce07ae6b",
      "transactionType": "CALL",
      "contractName": "ArbExecutor",
      "contractAddress": "0x96888c4b6e569c74fdbdcc40cacf1127421f993c",
      "function": "setMaxSlippage(uint256)",
      "arguments": [
        "300"
      ],
      "transaction": {
        "from": "0x8660ad527b3df16b236307e7fbe6affb1ee4491a",
        "to": "0x96888c4b6e569c74fdbdcc40cacf1127421f993c",
        "gas": "0xa387",
        "value": "0x0",
        "input": "0x43f68a49000000000000000000000000000000000000000000000000000000000000012c",
        "nonce": "0x8",
        "chainId": "0xaa36a7"
      },
      "additionalContracts": [],
      "isFixedGasLimit": false
    }
  ],
  "receipts": [
    {
      "status": "0x1",
      "cumulativeGasUsed": "0x178f51",
      "logs": [
        {
          "address": "0x96888c4b6e569c74fdbdcc40cacf1127421f993c",
          "topics": [
            "0x8be0079c531659141344cd1fd0a4f28419497f9722a3daafe3b4186f6b6457e0",
            "0x0000000000000000000000000000000000000000000000000000000000000000",
            "0x0000000000000000000000008660ad527b3df16b236307e7fbe6affb1ee4491a"
          ],
          "data": "0x",
          "blockHash": "0x5c4c052048429961608a559bffcd39ee673dce9689a639f25d136b4e9f67e4be",
          "blockNumber": "0x8c4a8c",
          "blockTimestamp": "0x68c5302c",
          "transactionHash": "0xba6e49b3349f3e67be88f6dbaa3bca6564a516ff039fdb24fd77417454cc547f",
          "transactionIndex": "0x5",
          "logIndex": "0x0",
          "removed": false
        }
      ],
      "logsBloom": "0x00000000000000000000000000000000000000000000000000800000020000000000000000000000000000000000000000000000000000000000000000000000000000000000000000000000000000000001000000000000000000000000000000000000020000000000000000000800000000000000000000000000020000400000000000000000000000000000000000000000000000000000000000000000000000000000000000000000000000000000000000000000000000000000000000000080000000000000000000000000000000000000000000080000000020000000000000100000000000000000000000000000000000000000004000000000",
      "type": "0x0",
      "transactionHash": "0xba6e49b3349f3e67be88f6dbaa3bca6564a516ff039fdb24fd77417454cc547f",
      "transactionIndex": "0x5",
      "blockHash": "0x5c4c052048429961608a559bffcd39ee673dce9689a639f25d136b4e9f67e4be",
      "blockNumber": "0x8c4a8c",
      "gasUsed": "0x1597e9",
      "effectiveGasPrice": "0x12a05f200",
      "from": "0x8660ad527b3df16b236307e7fbe6affb1ee4491a",
      "to": null,
      "contractAddress": "0x96888c4b6e569c74fdbdcc40cacf1127421f993c"
    },
    {
      "status": "0x1",
      "cumulativeGasUsed": "0x184440",
      "logs": [],
      "logsBloom": "0x00000000000000000000000000000000000000000000000000000000000000000000000000000000000000000000000000000000000000000000000000000000000000000000000000000000000000000000000000000000000000000000000000000000000000000000000000000000000000000000000000000000000000000000000000000000000000000000000000000000000000000000000000000000000000000000000000000000000000000000000000000000000000000000000000000000000000000000000000000000000000000000000000000000000000000000000000000000000000000000000000000000000000000000000000000000",
      "type": "0x0",
      "transactionHash": "0xde27b6ecc2a99e408675627b56493a452bb2227e6be5839865dbf927f75397ba",
      "transactionIndex": "0x6",
      "blockHash": "0x5c4c052048429961608a559bffcd39ee673dce9689a639f25d136b4e9f67e4be",
      "blockNumber": "0x8c4a8c",
      "gasUsed": "0xb4ef",
      "effectiveGasPrice": "0x12a05f200",
      "from": "0x8660ad527b3df16b236307e7fbe6affb1ee4491a",
      "to": "0x96888c4b6e569c74fdbdcc40cacf1127421f993c",
      "contractAddress": null
    },
    {
      "status": "0x1",
      "cumulativeGasUsed": "0x18f92f",
      "logs": [],
      "logsBloom": "0x00000000000000000000000000000000000000000000000000000000000000000000000000000000000000000000000000000000000000000000000000000000000000000000000000000000000000000000000000000000000000000000000000000000000000000000000000000000000000000000000000000000000000000000000000000000000000000000000000000000000000000000000000000000000000000000000000000000000000000000000000000000000000000000000000000000000000000000000000000000000000000000000000000000000000000000000000000000000000000000000000000000000000000000000000000000",
      "type": "0x0",
      "transactionHash": "0xe2cdc64e103a8e78a9496607195d75917672a0306cc8a512475ab9c4b16b71bb",
      "transactionIndex": "0x7",
      "blockHash": "0x5c4c052048429961608a559bffcd39ee673dce9689a639f25d136b4e9f67e4be",
      "blockNumber": "0x8c4a8c",
      "gasUsed": "0xb4ef",
      "effectiveGasPrice": "0x12a05f200",
      "from": "0x8660ad527b3df16b236307e7fbe6affb1ee4491a",
      "to": "0x96888c4b6e569c74fdbdcc40cacf1127421f993c",
      "contractAddress": null
    },
    {
      "status": "0x1",
      "cumulativeGasUsed": "0x19ae1e",
      "logs": [],
      "logsBloom": "0x00000000000000000000000000000000000000000000000000000000000000000000000000000000000000000000000000000000000000000000000000000000000000000000000000000000000000000000000000000000000000000000000000000000000000000000000000000000000000000000000000000000000000000000000000000000000000000000000000000000000000000000000000000000000000000000000000000000000000000000000000000000000000000000000000000000000000000000000000000000000000000000000000000000000000000000000000000000000000000000000000000000000000000000000000000000",
      "type": "0x0",
      "transactionHash": "0x8a5fbd4e070b0c84d62d6e82484da59ddaf673f37f74c221cd119ba81b17f577",
      "transactionIndex": "0x8",
      "blockHash": "0x5c4c052048429961608a559bffcd39ee673dce9689a639f25d136b4e9f67e4be",
      "blockNumber": "0x8c4a8c",
      "gasUsed": "0xb4ef",
      "effectiveGasPrice": "0x12a05f200",
      "from": "0x8660ad527b3df16b236307e7fbe6affb1ee4491a",
      "to": "0x96888c4b6e569c74fdbdcc40cacf1127421f993c",
      "contractAddress": null
    },
    {
      "status": "0x1",
      "cumulativeGasUsed": "0x1a62e1",
      "logs": [],
      "logsBloom": "0x00000000000000000000000000000000000000000000000000000000000000000000000000000000000000000000000000000000000000000000000000000000000000000000000000000000000000000000000000000000000000000000000000000000000000000000000000000000000000000000000000000000000000000000000000000000000000000000000000000000000000000000000000000000000000000000000000000000000000000000000000000000000000000000000000000000000000000000000000000000000000000000000000000000000000000000000000000000000000000000000000000000000000000000000000000000",
      "type": "0x0",
      "transactionHash": "0xdb8b204a0e6bec342c8674ef3b6f8aaded45bb7a5f59274ff6b28f7885142254",
      "transactionIndex": "0x9",
      "blockHash": "0x5c4c052048429961608a559bffcd39ee673dce9689a639f25d136b4e9f67e4be",
      "blockNumber": "0x8c4a8c",
      "gasUsed": "0xb4c3",
      "effectiveGasPrice": "0x12a05f200",
      "from": "0x8660ad527b3df16b236307e7fbe6affb1ee4491a",
      "to": "0x96888c4b6e569c74fdbdcc40cacf1127421f993c",
      "contractAddress": null
    },
    {
      "status": "0x1",
      "cumulativeGasUsed": "0x1b17a4",
      "logs": [],
      "logsBloom": "0x00000000000000000000000000000000000000000000000000000000000000000000000000000000000000000000000000000000000000000000000000000000000000000000000000000000000000000000000000000000000000000000000000000000000000000000000000000000000000000000000000000000000000000000000000000000000000000000000000000000000000000000000000000000000000000000000000000000000000000000000000000000000000000000000000000000000000000000000000000000000000000000000000000000000000000000000000000000000000000000000000000000000000000000000000000000",
      "type": "0x0",
      "transactionHash": "0xb47fb5561533397c471caa68f3248ed6351cff9fb087b79428457ce08737447e",
      "transactionIndex": "0xa",
      "blockHash": "0x5c4c052048429961608a559bffcd39ee673dce9689a639f25d136b4e9f67e4be",
      "blockNumber": "0x8c4a8c",
      "gasUsed": "0xb4c3",
      "effectiveGasPrice": "0x12a05f200",
      "from": "0x8660ad527b3df16b236307e7fbe6affb1ee4491a",
      "to": "0x96888c4b6e569c74fdbdcc40cacf1127421f993c",
      "contractAddress": null
    },
    {
      "status": "0x1",
      "cumulativeGasUsed": "0x1b88bd",
      "logs": [],
      "logsBloom": "0x00000000000000000000000000000000000000000000000000000000000000000000000000000000000000000000000000000000000000000000000000000000000000000000000000000000000000000000000000000000000000000000000000000000000000000000000000000000000000000000000000000000000000000000000000000000000000000000000000000000000000000000000000000000000000000000000000000000000000000000000000000000000000000000000000000000000000000000000000000000000000000000000000000000000000000000000000000000000000000000000000000000000000000000000000000000",
      "type": "0x0",
      "transactionHash": "0xc0fef1f4ed8d4ebe8505b13b2f8ead3027d92f9efe7973ec5dd0ffba1da762c9",
      "transactionIndex": "0xb",
      "blockHash": "0x5c4c052048429961608a559bffcd39ee673dce9689a639f25d136b4e9f67e4be",
      "blockNumber": "0x8c4a8c",
      "gasUsed": "0x7119",
      "effectiveGasPrice": "0x12a05f200",
      "from": "0x8660ad527b3df16b236307e7fbe6affb1ee4491a",
      "to": "0x96888c4b6e569c74fdbdcc40cacf1127421f993c",
      "contractAddress": null
    },
    {
      "status": "0x1",
      "cumulativeGasUsed": "0x1bf88e",
      "logs": [],
      "logsBloom": "0x00000000000000000000000000000000000000000000000000000000000000000000000000000000000000000000000000000000000000000000000000000000000000000000000000000000000000000000000000000000000000000000000000000000000000000000000000000000000000000000000000000000000000000000000000000000000000000000000000000000000000000000000000000000000000000000000000000000000000000000000000000000000000000000000000000000000000000000000000000000000000000000000000000000000000000000000000000000000000000000000000000000000000000000000000000000",
      "type": "0x0",
      "transactionHash": "0x9792f4d4da1deaa754d8f21fd8cff3cf06ff22f20eb8ad4b48bf51dcce07ae6b",
      "transactionIndex": "0xc",
      "blockHash": "0x5c4c052048429961608a559bffcd39ee673dce9689a639f25d136b4e9f67e4be",
      "blockNumber": "0x8c4a8c",
      "gasUsed": "0x6fd1",
      "effectiveGasPrice": "0x12a05f200",
      "from": "0x8660ad527b3df16b236307e7fbe6affb1ee4491a",
      "to": "0x96888c4b6e569c74fdbdcc40cacf1127421f993c",
      "contractAddress": null
    }
  ],
  "libraries": [],
  "pending": [],
  "returns": {},
  "timestamp": 1757753425455,
  "chain": 11155111,
  "commit": null
}